:100000000C94ED000C9415010C9415010C94150141
:100010000C9415010C9415010C9415010C94150108
:100020000C9415010C9415010C94DF090C947108C3
:100030000C9415010C9415010C9415010C941501E8
:100040000C9415010C9415010C9415010C941501D8
:100050000C9415010C9415010C9415010C941903C2
:100060000C9415010C9415010C9415010C941501B8
:100070000C9415010C9415010C9415010C941501A8
:100080000C9415010C9415010C9415010C94150198
:100090000C9415010C9415010C9415010C94150188
:1000A0000C9415010C9415010C94150139043C04B1
:1000B0002B042F0435045D045D045D0440044404F6
:1000C00048044E0452045D04580400000002000974
:1000D0000F0000030401000C0000000000000000FD
:1000E0000000000000000000000408020110408031
:1000F000401020408040800802040180402010020F
:10010000011080102040402004040404040304056E
:1001100002020202040302020202060606060606A4
:100120000404020202040400000000230026002947
:10013000002C002F0000000000250028002B002EBE
:1001400000310000000000240027002A002D0030AC
:1001500000080B0002020201000904000001020273
:1001600000000524001001052401010104240206F9
:100170000524060001070581031000400904010061
:10018000020A000000070502024000000705830282
:1001900040000012010002EF0201404123378000BD
:1001A0000101020301120100020000004041233757
:1001B0008000010102030141726475696E6F204C79
:1001C0004C430041726475696E6F204D6963726FB4
:1001D0000004030904002E02FF0511241FBECFEF07
:1001E000DAE0DEBFCDBF11E0A0E0B1E0E0E1F9E18F
:1001F00002C005900D92AA35B107D9F722E0AAE511
:10020000B1E001C01D92AC30B207E1F711E0CAEDD8
:10021000D1E004C02297FE010E94600CC63DD107C8
:10022000C9F70E941D060C94860C0C940000CF9216
:10023000DF92EF92FF920F931F93E82FF92F05C0E3
:10024000015011092109310961F190819623941718
:10025000B9F305C0015011092109310911F190814B
:1002600096239413F7CFC12CD12CE12CF12C0AC08A
:100270008FEFC81AD80AE80AF80A0C151D052E05D2
:100280003F0579F080818623841791F36C2D7D2DB5
:100290008E2D9F2D1F910F91FF90EF90DF90CF90AB
:1002A000089560E070E080E090E01F910F91FF9072
:1002B000EF90DF90CF900895CF93DF9340E052EC22
:1002C00061E070E084EA91E00E94EA0584EA91E04E
:1002D0000E94F0058823D1F3C0E7D1E061E0888176
:1002E0000E945E0462E08A810E945E04249681E09E
:1002F000C839D80799F7DF91CF9108958F929F92CF
:10030000AF92BF92CF92DF92EF92FF920F931F9323
:10031000CF93DF9300D000D0CDB7DEB75C010E9451
:1003200063036B017C01F501EE0FFF1FEE0FFF1F52
:10033000E059FE4F60E080810E94970483E090E0E6
:100340000E94C003F8948501000F111F000F111FB8
:1003500000591E4F61E0F80180810E9497048AE0F5
:1003600090E00E94C00360E0F80180810E94970441
:1003700020912601309127014091280150912901B7
:1003800061E0F80182810E94CD0478940E94500BB4
:1003900020E030E040E05FE30E94B40B0E941D0BC0
:1003A00020912E0130912F01409130015091310167
:1003B0000E943F0C29833A834B835C830E94630332
:1003C00029813A814B815C81C616D706E806F90679
:1003D000D8F429833A834B835C830E946303809023
:1003E0002A0190902B01A0902C01B0902D018C0C33
:1003F0009D1CAE1CBF1C29813A814B815C818616F5
:100400009706A806B90628F7C9010F900F900F901C
:100410000F90DF91CF911F910F91FF90EF90DF90A0
:10042000CF90BF90AF909F908F9008950F931F93A0
:10043000CF93DF930CE511E0C0E0D0E0CE010E9445
:100440007E01F801819391938F012196CA30D105E5
:10045000A9F7DF91CF911F910F9108958091240109
:100460009091250190937101809370018091980182
:100470009091990190937301809372018091220170
:1004800090912301909375018093740180912001D4
:1004900090912101909377018093760180911E01C4
:1004A00090911F01909379018093780180911C01B4
:1004B00090911D0190937B0180937A0180911A01A4
:1004C00090911B0190937D0180937C018091180194
:1004D0009091190190937F0180937E018091160184
:1004E0009091170190938101809380018091140174
:1004F0009091150190938301809382018091120164
:100500009091130190938501809384018091100153
:1005100090911101909387018093860180910E0143
:1005200090910F01909389018093880180910C0133
:1005300090910D0190938B0180938A0180910A0123
:1005400090910B0190938D0180938C018091080113
:100550009091090190938F0180938E018091060103
:1005600090910701909391018093900180910401F3
:1005700090910501909393018093920180910201E3
:1005800090910301909395018093940180910001D3
:1005900090910101909397018093960108950F9394
:1005A0001F93CF93DF93CCE5D1E08E01688184EA7D
:1005B00091E00E94F9042296F801618184EA91E0B9
:1005C0000E94F904F1E0C037DF0779F7DF91CF919E
:1005D0001F910F91089584EA91E00E942305892BD1
:1005E000D1F384EA91E00E94330580939A019091BF
:1005F0003301891303C00E94160211C09091320189
:10060000891303C00E94CF020AC09091340189135C
:1006100006C06091350184EA91E00E94F90480915E
:100620005A0190915B01019690935B0180935A016E
:1006300008951F920F920FB60F9211242F933F939C
:100640008F939F93AF93BF9380919C0190919D0155
:10065000A0919E01B0919F0130919B0123E0230F57
:100660002D3720F40196A11DB11D05C026E8230FEA
:100670000296A11DB11D20939B0180939C01909334
:100680009D01A0939E01B0939F018091A001909144
:10069000A101A091A201B091A3010196A11DB11DDC
:1006A0008093A0019093A101A093A201B093A30114
:1006B000BF91AF919F918F913F912F910F900FBE5E
:1006C0000F901F9018953FB7F8948091A0019091DA
:1006D000A101A091A201B091A30126B5A89B05C0DC
:1006E0002F3F19F00196A11DB11D3FBF6627782F3E
:1006F000892F9A2F620F711D811D911D42E0660F97
:10070000771F881F991F4A95D1F708958F929F925E
:10071000AF92BF92CF92DF92EF92FF926B017C017A
:100720000E9463034B015C01C114D104E104F10494
:10073000F1F00E94810A0E946303681979098A090D
:100740009B09683E73408105910570F321E0C21A50
:10075000D108E108F10888EE880E83E0981EA11CFC
:10076000B11CC114D104E104F10429F7DDCFFF90DD
:10077000EF90DF90CF90BF90AF909F908F900895B3
:100780008230910538F0880F991F880F991F0597BF
:100790000197F1F70895789484B5826084BD84B59B
:1007A000816084BD85B5826085BD85B5816085BD6C
:1007B000EEE6F0E0808181608083E1E8F0E0108285
:1007C000808182608083808181608083E0E8F0E0C6
:1007D000808181608083E1E9F0E0808182608083B4
:1007E000808181608083E0E9F0E0808181608083A6
:1007F000E1ECF0E08081846080838081826080838E
:10080000808181608083E3ECF0E08081816080837F
:10081000E0ECF0E0808182608083E2ECF0E08081B7
:1008200081608083EAE7F0E080818460808380815A
:100830008260808380818160808380818068808302
:10084000089590E0FC013197EF30F105B0F5EA5AD8
:10085000FF4F0C945E0C809180008F7703C08091D5
:1008600080008F7D80938000089580918000877F35
:10087000F9CF84B58F7702C084B58F7D84BD08958C
:10088000809190008F7707C0809190008F7D03C08A
:1008900080919000877F8093900008958091C000A0
:1008A0008F7703C08091C0008F7D8093C000089532
:1008B0008091C200877F8093C2000895CF93DF9319
:1008C00090E0FC01E751FF4F2491FC01E85FFE4FEF
:1008D0008491882349F190E0880F991FFC01ED5B1A
:1008E000FE4FA591B4918B5C9E4FFC01C591D491B4
:1008F0009FB7611108C0F8948C91209582238C9346
:10090000888182230AC0623051F4F8948C91322F8E
:10091000309583238C938881822B888304C0F8943C
:100920008C91822B8C939FBFDF91CF9108950F9371
:100930001F93CF93DF931F92CDB7DEB7282F30E000
:10094000F901E653FF4F8491F901E751FF4F1491EC
:10095000F901E85FFE4F04910023C9F0882321F0DC
:1009600069830E9421046981E02FF0E0EE0FFF1FF0
:10097000EB5CFE4FA591B4919FB7F8948C916111F7
:1009800003C01095812301C0812B8C939FBF0F90D2
:10099000DF91CF911F910F9108950F931F93762FA1
:1009A00090E0FC01E751FF4F6491FC01E85FFE4FCE
:1009B000E4917111762FF0E0EE0FFF1FE95DFE4F1D
:1009C0008591949189019A013F70472F0E941701E8
:1009D000611571058105910531F06F5F7F4F8F4F74
:1009E0009F4F9F7003C060E070E0CB011F910F919B
:1009F0000895CF93DF931F92CDB7DEB76983DC01F3
:100A0000ED91FC910280F381E02D41E050E0BE01C8
:100A10006F5F7F4F09950F90DF91CF910895CF932E
:100A2000DF93EC018C859D8597FF05C082E00E94D5
:100A300041079D878C878C859D85DF91CF91089597
:100A400083E00C94D509FC018485958597FD06C04B
:100A500082E00E94E90690E00196089582E00E94FB
:100A6000E90690E00895FC018485958597FD05C011
:100A70002FEF3FEF35872487089582E00C944107DC
:100A8000CF93DF93EC0180914101882331F083E023
:100A90000E9472071816190634F081E090E09B83DB
:100AA0008A8380E090E0DF91CF910895FC0120815E
:100AB0002E5F208342E450E061E571E080E80C9411
:100AC0000D08FC0121818081813A59F4213209F01D
:100AD0004BC047E050E06AE371E080E00E940D08FF
:100AE0005EC0813209F040C0233289F4838190E0F6
:100AF000982F88273281832BA0E0B0E080933601C5
:100B000090933701A0933801B09339010FC0203280
:100B100039F467E070E08AE391E00E943E0809C082
:100B2000223221F482818093410103C02D7F203243
:100B3000B1F58091F401811103C0E0E0F8E002C05A
:100B4000EEEFFAE080913A0190913B01A0913C01D7
:100B5000B0913D01803B9440A105B10511F5809114
:100B6000410180FF03C01DC080E00895EE3F2AE0F0
:100B7000F20731F0808191819093FF0A8093FE0A01
:100B800087E797E7918380832BE088E190E00FB6B9
:100B9000F894A895809360000FBE2093600081E0D8
:100BA000089588E10FB6F894809360001092600079
:100BB0000FBEA895EE3F8AE0F80739F08091FE0A53
:100BC0009091FF0A91838083EACF1092FF0A1092DE
:100BD000FE0AE5CF2FEF3FEFFC013587248708950C
:100BE000CF93C09141016AE070E080E090E00E9404
:100BF000860381E0C11101C080E0CF910895109279
:100C0000A7011092A60188EE93E0A0E0B0E08093E7
:100C1000A8019093A901A093AA01B093AB018DE420
:100C200091E09093A5018093A4018FEF9FEF9093A3
:100C3000B1018093B001089508950E94CB030E94F2
:100C40001C0685EF91E00E94620A0E945C01C0E0F0
:100C5000D0E00E94EB022097E1F30E940000F9CF60
:100C6000615030F02091F100FC0120830196F8CF13
:100C7000289A84E68093FE0108954091F9015091ED
:100C8000FA012091F7013091F80142175307B4F4AB
:100C90009091E8009570E1F39091E80092FD19C001
:100CA0008093F1008091F9019091FA0101968F7380
:100CB0009927892B19F48EEF8093E8008091F90130
:100CC0009091FA0101969093FA018093F90181E0E5
:100CD000089580E00895CF92DF92EF92FF920F93F4
:100CE0001F93CF93DF931F92CDB7DEB7082F162F38
:100CF000F42E862F880F8E5F99830E943D0683E035
:100D00000E943D06E02EC02E9981D92E8C2D8E1981
:100D1000811798F4F601F7FE02C0849101C080812A
:100D20000E943D06082F80E00E943D068023FFEFD1
:100D3000CF1ADF0A8111EACF01C081E00F90DF9165
:100D4000CF911F910F91FF90EF90DF90CF9008957A
:100D50008091D70081608093D70080EA8093D8008B
:100D600089B5806189BD89B5826089BD09B400FEFD
:100D7000FDCF61E070E080E090E00E94860380910A
:100D8000D8008F7C80618093D8008091E000807FC4
:100D90008093E0000895CF93DF931F92CDB7DEB725
:100DA0001982CE0101960E9456050E94090BBE01D0
:100DB0006F5F7F4F0E94820A89810F90DF91CF91F0
:100DC00008952FB7FC012083F89467706093E900C1
:100DD0000895CF93DF931F92CDB7DEB7682FCE0172
:100DE00001960E94E1068091F20099819FBF0F90C9
:100DF000DF91CF910895FF920F931F93CF93DF93CD
:100E000000D0CDB7DEB7F62E8A019091FD0199236F
:100E100011F057FF03C08FEF9FEF2BC0682FCE015B
:100E200001967A830E94E1068091F20090E0A80189
:100E30007A81801791070CF4AC01EF2DF72FF40E97
:100E400084E6FE1639F0289A8093FE019091F10015
:100E50009193F7CF4115510521F08091F20088233D
:100E600021F089818FBFCA0104C08BE68093E8001E
:100E7000F8CF0F900F90DF91CF911F910F91FF90BE
:100E80000895CF93DF931F92CDB7DEB741E050E0D6
:100E9000BE016F5F7F4F0E94FB06019719F48981A5
:100EA00090E002C08FEF9FEF0F90DF91CF910895F8
:100EB000CF93DF931F92CDB7DEB7682FCE01019697
:100EC0000E94E1069091E800892F807295FF04C08E
:100ED0009091F20080E4891B99819FBF0F90DF9170
:100EE000CF9108956F927F928F929F92AF92BF920F
:100EF000CF92DF92EF92FF920F931F93CF93DF93E6
:100F00001F92CDB7DEB7782E7B01C42EB52E80910F
:100F1000FD01882369F0042F152F8AEFD82E872D25
:100F20008072982E9AE3A92E872D8074882E11C086
:100F30008FEF9FEF57C0872D0E945807682E8111B1
:100F40000CC0DA94A9F361E070E080E090E00E94C8
:100F500086030115110579F73BC0282F30E00217F1
:100F600013070CF4602E672DCE0101960E94E10656
:100F70008091E80085FF29C0262D30E0021B130B6D
:100F8000992039F06A948FEF6816B1F01092F10051
:100F9000F9CFF701862D77FE07C0815058F0949164
:100FA0009093F1003196F9CF815020F09191909378
:100FB000F100FACFE20EF31E8091E80085FF0FC02A
:100FC0000115110511F481100AC089818FBFC1CFAD
:100FD0005D9A84E68093FF018C2D9B2D03C0A09227
:100FE000E800F3CF0F90DF91CF911F910F91FF9009
:100FF000EF90DF90CF90BF90AF909F908F907F90B9
:101000006F9008951092E9001092FA011092F90180
:101010009093F8018093F7010895CF92DF92FF92A9
:101020000F931F93CF93DF9300D0CDB7DEB7F82E89
:101030008A016B0101151105B1F0F601F7FE02C03E
:10104000849101C0808149835A830E943D060150EA
:101050001109FFEFCF1ADF0A49815A818111EACFC6
:101060008FEF9FEF01C0CA010F900F90DF91CF91DA
:101070001F910F91FF90DF90CF900895BF92CF9274
:10108000DF92EF92FF920F931F93CF93DF936C0148
:101090008B01EB013BEFB32E2097C1F07E01C134F1
:1010A000D1051CF020E4E22EF12C8091E80082FFB3
:1010B000FCCFC8018C1B9D0B6E2D8C0D9D1D0E94BD
:1010C0003006B092E800CE19DF09E6CFC801DF9103
:1010D000CF911F910F91FF90EF90DF90CF90BF9035
:1010E00008951F920F920FB60F921124DF92EF9284
:1010F000FF920F931F932F933F934F935F936F93A1
:101100007F938F939F93AF93BF93EF93FF93CF936F
:10111000DF93CDB7DEB76C97DEBFCDBF1092E9008D
:101120008091E80083FF23C168E0CE0145960E94CC
:10113000300682EF8093E8003D8937FF05C080913B
:10114000E80080FFFCCF03C08EEF8093E800832F80
:10115000807609F0F0C02E894F89D88C21110CC0FF
:10116000303829F48091FC018093F10002C0109284
:10117000F1001092F100F4C0842F90E09D292130FD
:1011800049F43111EDC0019709F0EAC08091FC01EA
:101190008D7F0AC0233059F43111E2C0019709F064
:1011A000DFC08091FC0182608093FC01D9C02530B2
:1011B00041F48091E80080FFFCCF40684093E30059
:1011C000CFC0263009F08DC0EB8CFC8C22E0D2120F
:1011D0002CC080E090E00E9402080E94CB0699E0BB
:1011E0008E010F5F1F4FF801292F11922A95E9F701
:1011F0009983DA8291E09E8390EA98879AEF9987A3
:101200002091F9013091FA01275F3F4F3C832B83F6
:101210008D83C7010E94020849E050E0B80180E0D8
:101220000E940D080E94CB069BC0C7010E940208C5
:101230000E94090BBE016B5E7F4F0E94AB0A0097B4
:1012400019F00CF08DC090C081E0D8120EC08B8DCB
:101250009C8D089719F481E08093F6018091F60146
:1012600081112FC065EA71E031C0E3E0DE127CC07D
:101270008F89882349F1823029F440E86DE083ECBE
:1012800091E01CC0813029F440E86BE087EB91E0ED
:1012900015C0833009F068C00E94090B8E010F5FF2
:1012A0001F4FB8010E94CA0AF80101900020E9F717
:1012B0003197E01BF10B40E06E2FC8010E946B06D6
:1012C0004DC063E971E002C061ED71E06115710527
:1012D00009F44AC0FB01449150E080E80E940D08E7
:1012E0003FC0273009F440C0283021F481E08093CA
:1012F000F10036C02930A1F53370B1F5E3E4F1E037
:1013000081E021E036E39081992361F08093E90048
:101310002093EB0091919093EC003093ED008F5F60
:10132000873089F78EE78093EA001092EA008F8970
:101330008093FD0115C08B8D9C8D0E940208898DC4
:10134000811105C0CE0145960E94610507C00E942B
:10135000090BBE016B5E7F4F0E94E90A882321F0D2
:101360008EEF8093E80003C081E28093EB006C96DF
:101370000FB6F894DEBF0FBECDBFDF91CF91FF91C6
:10138000EF91BF91AF919F918F917F916F915F91FD
:101390004F913F912F911F910F91FF90EF90DF9010
:1013A0000F900FBE0F901F9018958093E9008091C9
:1013B000F200882319F08AE38093E80008951F92D1
:1013C0000F920FB60F9211242F933F934F935F9379
:1013D0006F937F938F939F93AF93BF93CF93EF932D
:1013E000FF93C091E1008091E100837F8093E10051
:1013F0008093E100C3FF0FC01092E90081E0809369
:10140000EB001092EC0082E38093ED001092FD015E
:1014100088E08093F000C2FF19C083E00E94D509E4
:101420008091FF01882339F08091FF0181508093E2
:10143000FF01882389F18091FE01882339F0809192
:10144000FE0181508093FE01882341F1C4FF10C04A
:101450008091E2008E7E81608093E2008091E100C5
:101460008F7E8093E1008091FB018E7E806111C0B0
:10147000C0FF16C08091E2008E7E80618093E20002
:101480008091E1008E7E8093E1008091FB018E7E51
:1014900081608093FB0104C05D98CDCF2898D6CFA2
:1014A000FF91EF91CF91BF91AF919F918F917F91DC
:1014B0006F915F914F913F912F910F900FBE0F90C1
:1014C0001F9018951092FD011092FC011092FB01E3
:1014D0000E94A8068091E1008E7E8093E1008DE05D
:1014E0008093E200559A209A5D982898EEEFFFE7E6
:1014F000859194918B3F9C4D19F481E08093F40188
:1015000008950895EF92FF920F931F93CF93DF9367
:101510007B01FC01C281D38100E010E0209781F0C3
:10152000E881F9810280F381E02DB701CE010995B0
:1015300097FD08C0080F191F0884D985C02DEECF6C
:10154000C80102C08FEF9FEFDF91CF911F910F91E4
:10155000FF90EF9008950F931F93CF93DF938B012C
:10156000FC01C281D381209771F0E881F981048068
:10157000F581E02DB801CE010995009731F408847A
:10158000D985C02DF0CF80E090E0DF91CF911F9101
:101590000F9108950F931F93CF93DF938B01FC015D
:1015A000C281D381209771F0E881F9810680F781AB
:1015B000E02DB801CE010995080F111D0884D985C9
:1015C000C02DF0CFF8011082DF91CF911F910F91C4
:1015D00008950F931F93CF93DF938B01FC01C2817A
:1015E000D381209771F0E881F9810190F081E02D9D
:1015F000B801CE010995811106C00884D985C02D96
:10160000F0CF80E001C081E0DF91CF911F910F9179
:1016100008958091040281110DC082E08093000240
:1016200084E080930102109203021092020281E092
:101630008093040280E092E0089504D06894B11190
:101640008DC0089570D088F09F5790F0B92F9927DA
:10165000B751A0F0D1F0660F771F881F991F1AF0BD
:10166000BA95C9F712C0B13081F077D0B1E00895D2
:1016700074C0672F782F8827B85F39F0B93FCCF353
:10168000869577956795B395D9F73EF490958095B3
:10169000709561957F4F8F4F9F4F0895E89409C0D3
:1016A00097FB3EF490958095709561957F4F8F4F95
:1016B0009F4F9923A9F0F92F96E9BB279395F695AB
:1016C000879577956795B795F111F8CFFAF4BB0F29
:1016D00011F460FF1BC06F5F7F4F8F4F9F4F16C08D
:1016E000882311F096E911C0772321F09EE8872F17
:1016F000762F05C0662371F096E8862F70E060E0D3
:101700002AF09A95660F771F881FDAF7880F96954B
:10171000879597F9089557FD9058440F551F59F034
:101720005F3F71F04795880F97FB991F61F09F3FCE
:1017300079F087950895121613061406551FF2CFF7
:101740004695F1DF08C0161617061806991FF1CF47
:1017500086957105610508940895E894BB2766276E
:101760007727CB0197F908950BD078C069D028F07E
:101770006ED018F0952309F05AC05FC01124EECF47
:10178000CADFA0F3959FD1F3950F50E0551F629FDC
:10179000F001729FBB27F00DB11D639FAA27F00DCA
:1017A000B11DAA1F649F6627B00DA11D661F829FF1
:1017B0002227B00DA11D621F739FB00DA11D621FD6
:1017C000839FA00D611D221F749F3327A00D611DF3
:1017D000231F849F600D211D822F762F6A2F1124D5
:1017E0009F5750408AF0E1F088234AF0EE0FFF1F28
:1017F000BB1F661F771F881F91505040A9F79E3F5F
:10180000510570F014C0AACF5F3FECF3983EDCF3B3
:10181000869577956795B795F795E7959F5FC1F79B
:10182000FE2B880F911D9695879597F9089597F946
:101830009F6780E870E060E008959FEF80EC089576
:1018400000240A941616170618060906089500249F
:101850000A9412161306140605060895092E039419
:10186000000C11F4882352F0BB0F40F4BF2B11F48D
:1018700060FF04C06F5F7F4F8F4F9F4F0895052E0D
:1018800097FB1EF400940E94560C57FD07D00E944F
:10189000640C07FC03D04EF40C94560C5095409504
:1018A000309521953F4F4F4F5F4F0895909580950C
:1018B000709561957F4F8F4F9F4F0895EE0FFF1FDB
:1018C0000590F491E02D0994A1E21A2EAA1BBB1BEE
:1018D000FD010DC0AA1FBB1FEE1FFF1FA217B307FC
:1018E000E407F50720F0A21BB30BE40BF50B661F12
:1018F000771F881F991F1A9469F7609570958095D6
:1019000090959B01AC01BD01CF010895F894FFCFE4
:101910001700160015001400130012000D000C0033
:101920000B000A000900080007000600050004007B
:10193000030002000100384A00002C4C00001D008A
:10194000000061636955FFFFFFFF00E10000000038
:10195000000000C1808100000000000000F9044088
:0A19600005230533050F05200500DF
:00000001FF
