:100000000C94EC000C9414010C9414010C94140145
:100010000C9414010C9414010C9414010C9414010C
:100020000C9414010C9414010C947C070C94DD03C3
:100030000C9414010C9414010C9414010C941401EC
:100040000C9414010C9414010C9414010C941401DC
:100050000C9414010C9414010C9414010C941A06C1
:100060000C9414010C9414010C9414010C941401BC
:100070000C9414010C9414010C9414010C941401AC
:100080000C9414010C9414010C9414010C9414019C
:100090000C9414010C9414010C9414010C9414018C
:1000A0000C9414010C9414010C941401460249029E
:1000B00038023C0240026A026A026A024D025102A0
:1000C00055025B025F026A0265020000000200093D
:1000D0000F0000030401000C0000000000000000FD
:1000E00000000000000000000000000000250028C3
:1000F000002B002E00310000000000240027002A01
:10010000002D003000000000002300260029002CF4
:10011000002F000404040404030405020202020484
:100120000302020202060606060606040402020292
:1001300004040408020110408040102040804080E8
:10014000080204018040201002011080102040406D
:1001500020080B0002020201000904000001020253
:1001600000000524001001052401010104240206F9
:100170000524060001070581031000400904010061
:10018000020A000000070502024000000705830282
:100190004000000403090441726475696E6F204CCD
:1001A0004C430041726475696E6F204D6963726FD4
:1001B00000120100020000004041233780000101CD
:1001C00002030112010002EF0201404123378000C7
:1001D000010102030100FD0A11241FBECFEFDAE086
:1001E000DEBFCDBF11E0A0E0B1E0E8EAFCE102C073
:1001F00005900D92AE33B107D9F722E0AEE3B1E03E
:1002000001C01D92AC30B207E1F710E0CCEED0E0B7
:1002100004C02197FE010E94A30BCB3ED107C9F772
:100220000E9433080C94520E0C94000040917C0103
:1002300050917D0120917A0130917B014217530743
:10024000B4F49091E8009570E1F39091E80092FD8C
:1002500019C08093F10080917C0190917D010196FD
:100260008F739927892B19F48EEF8093E800809182
:100270007C0190917D01019690937D0180937C019A
:1002800081E0089580E00895CF92DF92EF92FF928F
:100290000F931F93CF93DF931F92CDB7DEB7182F25
:1002A000062FE42E862F880F8E5F99830E941601F9
:1002B00083E00E941601F12EC12E9981D92E8C2D3A
:1002C0008F19801798F4F601E7FE02C0849101C0EF
:1002D00080810E941601182F80E00E941601812360
:1002E000FFEFCF1ADF0A8111EACF01C081E00F9042
:1002F000DF91CF911F910F91FF90EF90DF90CF9002
:100300000895DF92EF92FF920F931F93CF93DF93A5
:10031000D82E8A017B01E40EF51EEB01CE15DF0518
:1003200071F0D7FE03C0FE01849101C088810E9454
:10033000160121968111F2CF8FEF9FEF01C0C80106
:10034000DF91CF911F910F91FF90EF90DF90089573
:10035000615030F02091F100FC0120830196F8CF2C
:10036000289A84E6809382010895CF92DF92EF92DB
:10037000FF920F931F93CF93DF936C017A018B0150
:10038000C0E0D0E0CE15DF0589F0D8016D918D0178
:10039000D601ED91FC910190F081E02DC601099507
:1003A000892B11F47E0102C02196ECCFC701DF91A9
:1003B000CF911F910F91FF90EF90DF90CF90089514
:1003C000CF93DF931F92CDB7DEB76983DC01ED9148
:1003D000FC910280F381E02D41E050E0BE016F5FAF
:1003E0007F4F09950F90DF91CF91089583E080931F
:1003F000E9008091F200882319F08AE38093E800F5
:100400000895FC018485958597FD0BC09FB7F894EE
:1004100082E08093E9008091F2009FBF90E0019616
:1004200008959FB7F89482E08093E9008091F200EC
:100430009FBF90E00895362F90E0FC01E653FF4FF8
:100440004491FC01EE5CFE4F2491FC01ED5EFE4FF9
:100450008491882309F451C04423E1F150E0FA016A
:100460003197EF30F105B0F5EA5AFF4F0C94A30B2A
:10047000909180009F7707C0909180009F7D03C07E
:1004800090918000977F9093800024C094B59F77CF
:1004900002C094B59F7D94BD1DC0909190009F7740
:1004A00007C0909190009F7D03C090919000977F2E
:1004B000909390000FC09091C0009F7703C09091DF
:1004C000C0009F7D9093C00005C09091C200977FAF
:1004D0009093C200E82FF0E0EE0FFF1FE751FF4FAF
:1004E000A591B4918FB7F894EC91311103C0209588
:1004F0002E2301C02E2B2C938FBF08953FB7F89465
:100500008091430190914401A0914501B091460131
:1005100026B5A89B05C02F3F19F00196A11DB11D5E
:100520003FBFBA2FA92F982F8827820F911DA11D99
:10053000B11DBC01CD0142E0660F771F881F991FD6
:100540004A95D1F708958F929F92AF92BF92CF9222
:10055000DF92EF92FF926B017C010E947E024B01C1
:100560005C01C114D104E104F104F1F00E947E02A7
:10057000DC01CB0188199909AA09BB09883E93407F
:10058000A105B10570F321E0C21AD108E108F10814
:1005900088EE880E83E0981EA11CB11CC114D10402
:1005A000E104F10419F7DDCFFF90EF90DF90CF90D9
:1005B000BF90AF909F908F9008958F929F92AF922F
:1005C000BF92CF92DF92EF92FF920F931F93CF9340
:1005D000DF935C016B018A0180910B01882309F490
:1005E0005EC080918301882309F459C08091800105
:1005F00080FF05C08091E00082608093E000E80108
:100600008AEFF82E93E0E92E2FE3822E3AE3932E21
:10061000209709F43DC08FB7F894E092E9009091DB
:10062000E80095FF06C09091F200282D291B922F1B
:1006300001C090E08FBF91110AC0FA94FF2079F1B8
:1006400061E070E080E090E00E94A302E1CF292FFA
:1006500030E0C217D3070CF49C2F8FB7F894E092C8
:10066000E9002091E80025FF11C0292F30E0C21BCE
:10067000D30BF601915020F041914093F100FACF55
:10068000C20ED31E9091E80095FF13C08FBFC0CF5C
:100690005D9A84E6809381011016110644F081E092
:1006A00090E0F5019383828380E090E005C0C8016B
:1006B00003C09092E800EACFDF91CF911F910F9194
:1006C000FF90EF90DF90CF90BF90AF909F908F9072
:1006D00008950F931F93CF93DF931F92CDB7DEB78B
:1006E00082E0898342E450E061E571E080E80E94A5
:1006F00081010E94A806DC0112960D911C911397AE
:100700000115110569F0D801ED91FC910280F3818A
:10071000E02DBE016F5F7F4FC801099597FF07C0AD
:1007200089810F90DF91CF911F910F910895F8016A
:1007300000851185E5CF0F931F93CF93DF931F9211
:10074000CDB7DEB78C01FC018485958597FF0EC07F
:10075000CE0101960E947E06019719F4298130E0AE
:1007600002C02FEF3FEFF80135872487F801848519
:1007700095850F90DF91CF911F910F910895CF93A1
:10078000DF931F92CDB7DEB7FC018485958597FD79
:1007900005C02FEF3FEF358724870BC0CE010196B0
:1007A0000E947E06019719F4898190E002C08FEFC4
:1007B0009FEF0F90DF91CF9108951F920F920FB688
:1007C0000F921124CF92DF92EF92FF920F931F931B
:1007D0002F933F934F935F936F937F938F939F9349
:1007E000AF93BF93EF93FF93CF93DF93CDB7DEB774
:1007F0006C97DEBFCDBF1092E9008091E80083FFC7
:10080000FAC168E0CE0145960E94A80182EF80936C
:10081000E8008D8987FF05C09091E80090FFFCCF2C
:1008200003C09EEF9093E800982F907609F0C6C021
:100830009E892F89188D91110CC0803829F48091E0
:100840007F018093F10002C01092F1001092F1003C
:1008500047C1422F50E0512B913051F4811140C1DA
:100860004130510509F03CC180917F018D7F0BC063
:10087000933061F4811134C14130510509F030C128
:1008800080917F01826080937F012AC1953041F47D
:100890008091E80080FFFCCF20682093E30020C116
:1008A000963009F05FC0EB8CFC8C1092E90010923E
:1008B0007D0110927C01123091F510927B01109213
:1008C0007A010E94690399E0BE016F5F7F4FDB01EF
:1008D000E92F1D92EA95E9F799831A8391E09E83A7
:1008E00090EA98879AEF998720917C0130917D0159
:1008F000275F3F4F3C832B838D831092E90010923A
:100900007D0110927C01F0927B01E0927A0149E036
:1009100050E080E00E9481010E946903E1C0F092F2
:100920007B01E0927A010E94A806DC011296ED900C
:10093000FC901397E114F10409F4C0C0D701ED91C4
:10094000FC910480F581E02DBE016B5E7F4FC701F5
:100950000995009719F00CF0C3C0C6C0F701E084F8
:10096000F184E8CF973009F4BFC0983021F481E0DA
:100970008093F100B5C0993009F0B2C0837009F0DE
:10098000B3C0E3E1F1E081E021E036E39081992317
:1009900061F08093E9002093EB0091919093EC003B
:1009A0003093ED008F5F873089F78EE78093EA0000
:1009B0001092EA008F898093830192C08B8D9C8D69
:1009C0001092E90010927D0110927C0190937B01BE
:1009D00080937A01898D811156C08E899D89913AC3
:1009E00059F4813209F080C047E050E064E071E0E2
:1009F00080E00E94810174C0913209F075C0833299
:100A000089F4888D90E0982F88272F89822BA0E089
:100A1000B0E08093000190930101A0930201B09394
:100A200003015EC0803269F48091E80082FFFCCF50
:100A300067E084E091E00E94A8018BEF8093E800DA
:100A400006C0823209F04CC08F8980930B018091DF
:100A50007E01882319F0EEEFFAE002C0E0E0F8E052
:100A60008091040190910501A0910601B0910701C8
:100A7000803B9440A105B10509F088C080910B012D
:100A800080FFA0C083C00E94A806DC0112960D91D1
:100A90001C9113970115110539F1D801ED91FC91C5
:100AA0000190F081E02DBE016B5E7F4FC80109957A
:100AB000811116C0F80100851185ECCF1130C1F00D
:100AC000133091F48F89882309F455C08230E9F4FA
:100AD00040E86DE083EA91E00E944401882321F020
:100AE0008EEF8093E80087C081E28093EB0083C0A3
:100AF0008B8D9C8D089711F4109379018091790169
:100B0000811136C061EB71E038C0813029F440E8D2
:100B10006BE087E991E0E0CF833031F70E94A806CF
:100B2000DC011296ED90FC9013978E010F5F1F4F22
:100B30006801E114F10479F0D701ED91FC91068090
:100B4000F781E02DB801C7010995080F111DF701C4
:100B5000E084F184EECFD8011C92F60101900020D0
:100B6000E9F73197BF016C197D0940E0C601B4CFA8
:100B700063EC71E002C063E971E06115710509F48D
:100B8000B3CFFB01449150E080E833CF0FB6F89427
:100B9000A895809160008861809360001092600049
:100BA0000FBEA895EE3F2AE0F20739F08091FE0AC9
:100BB0009091FF0A9183808393CF1092FF0A109245
:100BC000FE0A8ECFEE3F8AE0F80731F080819181F6
:100BD0009093FF0A8093FE0A87E797E791838083CB
:100BE0009BE088E10FB6F894A895809360000FBE53
:100BF0009093600075CF6C960FB6F894DEBF0FBE71
:100C0000CDBFDF91CF91FF91EF91BF91AF919F91B8
:100C10008F917F916F915F914F913F912F911F9194
:100C20000F91FF90EF90DF90CF900F900FBE0F903D
:100C30001F9018951F920F920FB60F9211242F93A9
:100C40003F938F939F93AF93BF9380913F01909178
:100C50004001A0914101B091420130913E0123E059
:100C6000230F2D3720F40196A11DB11D05C026E8E4
:100C7000230F0296A11DB11D20933E0180933F01D9
:100C800090934001A0934101B093420180914301B0
:100C900090914401A0914501B09146010196A11D9A
:100CA000B11D8093430190934401A0934501B093FB
:100CB0004601BF91AF919F918F913F912F910F90DE
:100CC0000FBE0F901F9018950E94A00DBC010097B9
:100CD00091F0FC0101900020E9F73197AF01481B2A
:100CE000590BE0918401F09185010280F381E02DA0
:100CF00084E891E0099480E090E00895FC018091FF
:100D00008301811103C08FEF9FEF08959FB7F8947F
:100D100082E08093E9002091F20030E01216130681
:100D200014F421E030E02115310559F0289A84E6C9
:100D3000809382018091F10080838091F20088236A
:100D400019F09FBFC90108958BE68093E800F9CFA1
:100D50008091000281110DC082E08093FC0184E04B
:100D60008093FD011092FF011092FE0181E08093BB
:100D700000028CEF91E008950F931F93CF93DF93C0
:100D8000EC0188819981009729F02A813B812617FF
:100D9000370788F48B016F5F7F4F0E94D60C009756
:100DA00061F0998388831B830A832C813D81232BE7
:100DB00011F4FC01108281E001C080E0DF91CF914D
:100DC0001F910F910895CF93DF93EC018881998152
:100DD000009711F00E943E0C198218821D821C821D
:100DE0001B821A82DF91CF910895CF92DF92EF920A
:100DF000FF920F931F93CF93DF93CDB7DEB72E975C
:100E00000FB6F894DEBF0FBECDBF8C01CB01BA0187
:100E10002AE0AE014F5F5F4F6A010E94C00DF601EC
:100E200001900020E9F73197EC19FD09D8011496DB
:100E3000ED90FC9015973097D9F0EE0EFF1EB7019C
:100E4000C8010E94BC06882381F0F801208131810D
:100E500084819581B601820F931F0E94AE0DD80147
:100E60001596FC92EE92149703C0C8010E94E30607
:100E7000C8012E960FB6F894DEBF0FBECDBFDF912E
:100E8000CF911F910F91FF90EF90DF90CF90089539
:100E9000EF92FF920F931F93CF93DF93EC017B01AF
:100EA00061157105F1F0FB0101900020E9F7319720
:100EB000E61BF70B0C811D813097B1F00E0F1F1F41
:100EC000B8010E94BC06882361F0288139818C8199
:100ED0009D81B701820F931F0E94AE0D1D830C836D
:100EE00003C0CE010E94E306CE01DF91CF911F9196
:100EF0000F91FF90EF9008951F920F920FB60F92EF
:100F000011248F939F938091E1009091E100937F52
:100F10009093E10083FF0FC01092E90091E090935D
:100F2000EB001092EC0092E39093ED00109283019D
:100F300098E09093F00082FF20C093E09093E90046
:100F40009091F200992319F09AE39093E800909120
:100F50008101992339F09091810191509093810101
:100F6000992389F190918201992339F0909182011E
:100F7000915090938201992341F184FF10C0809198
:100F8000E2008E7E81608093E2008091E1008F7E9E
:100F90008093E100809180018E7E806111C080FF8E
:100FA00016C08091E2008E7E80618093E200809185
:100FB000E1008E7E8093E100809180018E7E8160D1
:100FC0008093800104C05D98CDCF2898D6CF9F91A3
:100FD0008F910F900FBE0F901F901895CF92DF92B8
:100FE000EF92FF920F931F93E82FF92F05C0015046
:100FF00011092109310961F1908196239417B9F300
:1010000005C0015011092109310911F19081962380
:101010009413F7CFC12CD12CE12CF12C0AC08FEF07
:10102000C81AD80AE80AF80A0C151D052E053F054E
:1010300079F080818623841791F36C2D7D2D8E2D80
:101040009F2D1F910F91FF90EF90DF90CF9008950B
:1010500060E070E080E090E01F910F91FF90EF90D2
:10106000DF90CF900895CF93DF93CDB7DEB7AB97E6
:101070000FB6F894DEBF0FBECDBF789484B5826002
:1010800084BD84B5816084BD85B5826085BD85B52C
:10109000816085BD80916E00816080936E001092AA
:1010A0008100809181008260809381008091810025
:1010B00081608093810080918000816080938000B6
:1010C0008091910082608093910080919100816075
:1010D0008093910080919000816080939000809136
:1010E000C10084608093C1008091C10082608093C0
:1010F000C1008091C10081608093C1008091C300D4
:1011000081608093C3008091C00082608093C000A2
:101110008091C20081608093C20080917A008460D7
:1011200080937A0080917A00826080937A00809127
:101130007A00816080937A0080917A008068809341
:101140007A001092830110927F01109280018091A9
:10115000D70081608093D70080EA8093D80089B55A
:10116000806189BD89B5826089BD09B400FEFDCF6B
:1011700061E070E080E090E00E94A3028091D800DE
:101180008F7C80618093D8008091E000807F809385
:10119000E0008091E1008E7E8093E1008DE08093FD
:1011A000E200559A209A5D982898EEEFFFE7859126
:1011B00094918B3F9C4D19F481E080937E018FEFD9
:1011C0009FEF909391018093900110910B016AE041
:1011D00070E080E090E00E94A3021123B1F3A4ED3F
:1011E000B1E08D919C9111979927FC01EE5CFE4F27
:1011F0002491FC01ED5EFE4F84918823A1F090E0E4
:10120000880F991FFC01E950FF4F45915491FC0153
:10121000E751FF4F859194918FB7F894FA0190812F
:10122000922B90838FBF12968D919C911397992743
:10123000FC01EE5CFE4F2491FC01ED5EFE4F8491BB
:101240008823D1F090E0880F991FFC01E950FF4FEF
:1012500065917491FC01E751FF4F459154919FB7FF
:10126000F894FB013081822F809583238083FA01DB
:101270008081282B20839FBF1496F1E0AC3FBF07ED
:1012800009F0AFCFCE0101967C0163E2262E312C0E
:101290000E947E02609375017093760180937701BE
:1012A000909378014DE4642E41E0742E230154EDB7
:1012B000C52E51E0D52E0E947E024B015C0160E0FC
:1012C000D6018C910E941B0287E090E00197F1F714
:1012D000F89461E0F60180810E941B02C101019730
:1012E000F1F760E0D6018C910E941B02F601828129
:1012F00093819927FC01EE5CFE4F6491FC01ED5E49
:10130000FE4FE491F0E0EE0FFF1FEB5FFE4F859183
:10131000949108E31AE420E030E0462F0E94EE07A3
:10132000611571058105910539F0DC01CB0101964C
:10133000A11DB11DBF7003C080E090E0DC01789476
:10134000BC01CD0195958795779567952DE130E0A6
:1013500040E050E00E94840B28A739A74AA75BA76A
:101360000E947E0228A539A54AA55BA58616970688
:10137000A806B90690F1D2012D933D934D935D934C
:101380002D01B4E0CB0ED11CECEFCE16E1E0DE0671
:1013900009F091CF0E947E020091750110917601B3
:1013A0002091770130917801DC01CB01801B910BFA
:1013B000A20BB30B8093750190937601A0937701F4
:1013C000B09378010E947E026093490170934A01B4
:1013D00080934B0190934C0133C0FCE28F0EFCE4F0
:1013E0009F1EA11CB11C28A739A74AA75BA70E9472
:1013F0007E0228A539A54AA55BA586169706A806EC
:10140000B90688F7B8CFCA01B9012AE030E040E058
:1014100050E00E94620B605DF80162938F0121151C
:1014200031054105510579F7C8010E94660689E238
:1014300091E00E946606B5E76B16B1E07B06B9F154
:10144000D3018D909D90AD90BD903D01B7FE17C02A
:10145000E0918401F09185010190F081E02D6DE231
:1014600084E891E0099522273327A9012819390931
:101470004A095B0919A28E010F5D1F4FC4CFA50158
:10148000940119A28E010F5D1F4FCA01B9012AE014
:1014900030E040E050E00E94620B605DD8016E9346
:1014A0008D01211531054105510579F7BDCF0E9408
:1014B0007E020091490110914A0120914B01309127
:1014C0004C014B015C01801A910AA20AB30A809276
:1014D000490190924A01A0924B01B0924C01409078
:1014E000750150907601609077017090780180913D
:1014F0004701909148011BA21AA21DA21CA21FA283
:101500001EA24AE0B7010E94B50DF701019000202C
:10151000E9F731978F010E191F09B801CE018296A4
:101520000E94BC06811105C0CE0182960E94E3068E
:1015300007C01FA30EA3B7018AA19BA10E94AE0DF5
:101540001A8219821C821B821E821D820AA11BA183
:101550000115110599F0CEA0DFA0B601C7010E94C8
:10156000BC06811104C0C7010E94E30607C0DE82E9
:10157000CD82B80189819A810E94AE0D6CE271E042
:10158000C7010E944807B301A2010E94F50665E366
:1015900071E00E944807B501A4010E94F506E091A0
:1015A0008401F0918501DC0114964D915C911597B1
:1015B0006D917C910280F381E02D84E891E00995A2
:1015C00089E291E00E94660689819A810E943E0C20
:1015D0008AA19BA10E943E0C8091470190914801F5
:1015E0000196909348018093470180E090E0892B19
:1015F00009F44ECE0E94000048CEE4E8F1E01382E8
:10160000128288EE93E0A0E0B0E084839583A68305
:10161000B7838DE191E0918380838FEF9FEF958772
:101620008487E4EDF1E081E090E091838083138290
:10163000128282E090E09583848383E090E0978338
:10164000868384E090E09187808785E090E09387AF
:10165000828786E090E09587848787E090E097878F
:10166000868788E090E0918B808B89E090E0938B77
:10167000828B8AE090E0958B848B8BE090E0978B57
:10168000868B8CE090E0918F808F8DE090E0938F3F
:10169000828F82E190E0958F848F83E190E0978F35
:1016A000868F84E190E091A380A385E190E093A3ED
:1016B00082A386E190E095A384A387E190E097A3BD
:1016C00086A30895A1E21A2EAA1BBB1BFD010DC023
:1016D000AA1FBB1FEE1FFF1FA217B307E407F507E2
:1016E00020F0A21BB30BE40BF50B661F771F881FBE
:1016F000991F1A9469F760957095809590959B0154
:10170000AC01BD01CF010895052E97FB1EF4009496
:101710000E949B0B57FD07D00E94620B07FC03D071
:101720004EF40C949B0B50954095309521953F4F6E
:101730004F4F5F4F089590958095709561957F4FBD
:101740008F4F9F4F0895EE0FFF1F0590F491E02DEE
:101750000994CF93DF938230910510F482E090E0FA
:10176000E0910A02F0910B0220E030E0C0E0D0E00E
:10177000309711F14081518148175907C0F048173F
:10178000590761F482819381209719F09B838A83A2
:101790002BC090930B0280930A0226C021153105BD
:1017A00019F04217530718F49A01BE01DF01EF0147
:1017B0000280F381E02DDCCF2115310509F1281BD2
:1017C000390B2430310590F412968D919C9113972A
:1017D0006115710521F0FB019383828304C090930E
:1017E0000B0280930A02FD01329644C0FD01E20F14
:1017F000F31F81939193225031092D933C933AC06A
:101800002091080230910902232B41F420910E010E
:1018100030910F01309309022093080220910C01AE
:1018200030910D012115310541F42DB73EB740919E
:10183000100150911101241B350BE0910802F09129
:101840000902E217F307A0F42E1B3F0B28173907F4
:1018500078F0AC014E5F5F4F2417350748F04E0F0C
:101860005F1F50930902409308028193919302C035
:10187000E0E0F0E0CF01DF91CF9108950F931F9347
:10188000CF93DF93009709F48CC0FC013297138249
:10189000128200910A0210910B020115110581F4C8
:1018A00020813181820F931F20910802309109021B
:1018B0002817390779F5F0930902E093080271C0FF
:1018C000D80140E050E0AE17BF0750F412962D91BA
:1018D0003C911397AD012115310509F1D901F3CFE1
:1018E0009D01DA013383228360817181860F971F06
:1018F0008217930769F4EC0128813981260F371F7D
:101900002E5F3F4F318320838A819B819383828323
:10191000452B29F4F0930B02E0930A0242C0139680
:10192000FC93EE931297ED01499159919E01240F7A
:10193000351FE217F30771F480819181840F951FA1
:10194000029611969C938E938281938113969C9319
:101950008E931297E0E0F0E0D80112968D919C9161
:101960001397009719F0F8018C01F6CF8D919C9197
:1019700098012E5F3F4F820F931F209108023091F4
:1019800009022817390769F4309729F410920B02DD
:1019900010920A0202C0138212821093090200936D
:1019A0000802DF91CF911F910F910895A0E0B0E060
:1019B000ECEDFCE00C941F0EEC01009721F4CB0140
:1019C0000E94A90BB8C0FC01E60FF71F9C01225032
:1019D0003109E217F30708F4ACC0D9010D911C914D
:1019E000119706171707B0F00530110508F49FC0CE
:1019F000C80104978617970708F499C00250110987
:101A0000061B170B019311936D937C93CF010E94DA
:101A10003E0C8DC05B01A01AB10A4C01800E911ED4
:101A2000A0910A02B0910B0240E050E0E12CF12CB1
:101A3000109709F44AC0A815B905D1F56D907C90AE
:101A40001197630182E0C80ED11CCA14DB0480F137
:101A5000A3014A195B096A0182E0C80ED11C1296E3
:101A6000BC9012971396AC91B5E0CB16D10440F020
:101A7000B282A38351834083D9016D937C930AC0C2
:101A80000E5F1F4FC301800F911FF9019183808367
:101A9000EB2DFA2FE114F10431F0D7011396FC93EA
:101AA000EE93129744C0F0930B02E0930A023FC0FA
:101AB0008D919C9111974817590708F4AC017D014D
:101AC00012960D90BC91A02DB3CF809108029091F9
:101AD000090288159905E1F446175707C8F4809163
:101AE0000C0190910D01009741F48DB79EB7409184
:101AF000100150911101841B950BE817F907C8F4E8
:101B0000F0930902E0930802F901718360830FC02A
:101B1000CB010E94A90B7C01009759F0A801BE01DE
:101B20000E94A50DCE010E943E0CC70104C0CE014B
:101B300002C080E090E0CDB7DEB7EEE00C943B0E43
:101B400081E090E0F8940C94520EFB01DC0102C09D
:101B500001900D9241505040D8F70895FB01DC01EF
:101B600001900D920020E1F70895BB274A3031F42F
:101B7000992322F4BDE2909581959F4F0C94F20D2C
:101B8000BB272A3051F4992342F4BDE29095809509
:101B9000709561957F4F8F4F9F4F0C94D00DBB2751
:101BA000FA01A62F6217710581059105330B30FBF1
:101BB00066F0AA27660F771F881F991FAA1FA21712
:101BC00010F0A21B63953850A9F7A05DAA3308F066
:101BD000A95DA19336F7B111B1931082CA010C949B
:101BE0000B0EBB27FB015527AA27880F991FAA1F99
:101BF000A41710F0A41B83955051B9F7A05DAA3328
:101C000008F0A95DA193009779F7B111B1931192F2
:101C1000CB010C940B0EDC01FC01672F7191772333
:101C2000E1F7329704C07C916D9370836291AE1797
:101C3000BF07C8F308952F923F924F925F926F9221
:101C40007F928F929F92AF92BF92CF92DF92EF924C
:101C5000FF920F931F93CF93DF93CDB7DEB7CA1BCD
:101C6000DB0B0FB6F894DEBF0FBECDBF09942A88F8
:101C7000398848885F846E847D848C849B84AA84A0
:101C8000B984C884DF80EE80FD800C811B81AA812D
:101C9000B981CE0FD11D0FB6F894DEBF0FBECDBFF8
:081CA000ED010895F894FFCF57
:101CA800FFFFFFFF00E100000000000000000C0241
:101CB800800000C1808100000000000000E001DD1C
:101CC800020102BF039B03F6010D0A007C6D2D740F
:0E1CD800696D653A007C732D74696D653A0084
:00000001FF
