:100000000C94EC000C9414010C9414010C94140145
:100010000C9414010C9414010C9414010C9414010C
:100020000C9414010C9414010C941D040C948F0472
:100030000C9414010C9414010C9414010C941401EC
:100040000C9414010C9414010C9414010C941401DC
:100050000C9414010C9414010C9414010C94CC060F
:100060000C9414010C9414010C9414010C941401BC
:100070000C9414010C9414010C9414010C941401AC
:100080000C9414010C9414010C9414010C9414019C
:100090000C9414010C9414010C9414010C9414018C
:1000A0000C9414010C9414010C941401F802FB023A
:1000B000EA02EE02F2021C031C031C03FF0203030C
:1000C00007030D0311031C031703000000020009BE
:1000D0000F0000030401000C0000000000000000FD
:1000E00000000000000000000000000000250028C3
:1000F000002B002E00310000000000240027002A01
:10010000002D003000000000002300260029002CF4
:10011000002F000404040404030405020202020484
:100120000302020202060606060606040402020292
:1001300004040408020110408040102040804080E8
:10014000080204018040201002011080102040406D
:1001500020080B0002020201000904000001020253
:1001600000000524001001052401010104240206F9
:100170000524060001070581031000400904010061
:10018000020A000000070502024000000705830282
:100190004000000403090441726475696E6F204CCD
:1001A0004C430041726475696E6F204D6963726FD4
:1001B00000120100020000004041233780000101CD
:1001C00002030112010002EF0201404123378000C7
:1001D0000101020301005B0711241FBECFEFDAE02B
:1001E000DEBFCDBF11E0A0E0B1E0E8EFF3E102C077
:1001F00005900D92A432B107D9F721E0A4E2B1E055
:1002000001C01D92A73EB207E1F710E0CCEED0E0AE
:1002100004C02197FE010E94CD09CB3ED107C9F74A
:100220000E94C0070C94FA090C940000FC01809114
:100230006E01811103C08FEF9FEF08959FB7F8946F
:1002400082E08093E9002091F20030E0121613065C
:1002500014F421E030E02115310559F0289A84E6A4
:1002600080936D018091F10080838091F20088235A
:1002700019F09FBFC90108958BE68093E800F9CF7C
:100280008091650181110DC082E08093610184E05D
:1002900080936201109264011092630181E0809367
:1002A000650181E691E0089540915B0150915C0108
:1002B0002091590130915A0142175307B4F490919B
:1002C000E8009570E1F39091E80092FD19C08093E9
:1002D000F10080915B0190915C0101968F739927E9
:1002E000892B19F48EEF8093E80080915B01909147
:1002F0005C01019690935C0180935B0181E008951D
:1003000080E00895CF92DF92EF92FF920F931F93B8
:10031000CF93DF931F92CDB7DEB7182F062FE42EB1
:10032000862F880F8E5F99830E94540183E00E947C
:100330005401F12EC12E9981D92E8C2D8F19801741
:1003400098F4F601E7FE02C0849101C080810E940A
:100350005401182F80E00E9454018123FFEFCF1A2F
:10036000DF0A8111EACF01C081E00F90DF91CF91C8
:100370001F910F91FF90EF90DF90CF900895DF9243
:10038000EF92FF920F931F93CF93DF93D82E8A01A2
:100390007B01E40EF51EEB01CE15DF0571F0D7FEF3
:1003A00003C0FE01849101C088810E9454012196FE
:1003B0008111F2CF8FEF9FEF01C0C801DF91CF9184
:1003C0001F910F91FF90EF90DF9008950F931F936F
:1003D000CF93DF931F92CDB7DEB782E0898342E4EB
:1003E00050E061E571E080E80E94BF010E94400199
:1003F000DC0112960D911C9113970115110569F0FE
:10040000D801ED91FC910280F381E02DBE016F5F78
:100410007F4FC801099597FF07C089810F90DF9131
:10042000CF911F910F910895F80100851185E5CFB7
:10043000615030F02091F100FC0120830196F8CF4B
:10044000289A84E680936D010895CF92DF92EF920F
:10045000FF920F931F93CF93DF936C017A018B016F
:10046000C0E0D0E0CE15DF0589F0D8016D918D0197
:10047000D601ED91FC910190F081E02DC601099526
:10048000892B11F47E0102C02196ECCFC701DF91C8
:10049000CF911F910F91FF90EF90DF90CF90089533
:1004A000CF93DF931F92CDB7DEB76983DC01ED9167
:1004B000FC910280F381E02D41E050E0BE016F5FCE
:1004C0007F4F09950F90DF91CF91089583E080933E
:1004D000E9008091F200882319F08AE38093E80014
:1004E0000895CF93DF931F92CDB7DEB7FC018485CB
:1004F000958597FD05C02FEF3FEF358724870BC00B
:10050000CE0101960E941601019719F4898190E0AD
:1005100002C08FEF9FEF0F90DF91CF9108950F935F
:100520001F93CF93DF931F92CDB7DEB78C01FC01F1
:100530008485958597FF0EC0CE0101960E94160115
:10054000019719F4298130E002C02FEF3FEFF80145
:1005500035872487F801848595850F90DF91CF91A9
:100560001F910F910895FC018485958597FD0BC01F
:100570009FB7F89482E08093E9008091F2009FBFDA
:1005800090E0019608959FB7F89482E08093E90087
:100590008091F2009FBF90E00895362F90E0FC011B
:1005A000E653FF4F4491FC01EE5CFE4F2491FC01A9
:1005B000ED5EFE4F8491882309F451C04423E1F19C
:1005C00050E0FA013197EF30F105B0F5EA5AFF4FEC
:1005D0000C94CD09909180009F7707C09091800086
:1005E0009F7D03C090918000977F9093800024C0EE
:1005F00094B59F7702C094B59F7D94BD1DC0909126
:1006000090009F7707C0909190009F7D03C09091CC
:100610009000977F909390000FC09091C0009F77BB
:1006200003C09091C0009F7D9093C00005C0909141
:10063000C200977F9093C200E82FF0E0EE0FFF1FFB
:10064000E751FF4FA591B4918FB7F894EC91311118
:1006500003C020952E2301C02E2B2C938FBF08950D
:100660003FB7F8948091290190912A01A0912B0124
:10067000B0912C0126B5A89B05C02F3F19F001961B
:10068000A11DB11D3FBFBA2FA92F982F8827820F18
:10069000911DA11DB11DBC01CD0142E0660F771F68
:1006A000881F991F4A95D1F708958F929F92AF9214
:1006B000BF92CF92DF92EF92FF926B017C010E947A
:1006C00030034B015C01C114D104E104F104F1F0E9
:1006D0000E943003DC01CB0188199909AA09BB09E2
:1006E000883E9340A105B10570F321E0C21AD108FC
:1006F000E108F10888EE880E83E0981EA11CB11C69
:10070000C114D104E104F10419F7DDCFFF90EF909B
:10071000DF90CF90BF90AF909F908F9008958F9271
:100720009F92AF92BF92CF92DF92EF92FF920F9380
:100730001F93CF93DF935C016B018A0180910B01C2
:10074000882309F45EC080916E01882309F459C0A2
:1007500080915F0180FF05C08091E00082608093FE
:10076000E000E8018AEFF82E93E0E92E2FE3822ED5
:100770003AE3932E209709F43DC08FB7F894E092A6
:10078000E9009091E80095FF06C09091F200282DB5
:10079000291B922F01C090E08FBF91110AC0FA94DB
:1007A000FF2079F161E070E080E090E00E94550365
:1007B000E1CF292F30E0C217D3070CF49C2F8FB75D
:1007C000F894E092E9002091E80025FF11C0292F5C
:1007D00030E0C21BD30BF601915020F041914093C1
:1007E000F100FACFC20ED31E9091E80095FF13C01E
:1007F0008FBFC0CF5D9A84E680936001101611060A
:1008000044F081E090E0F5019383828380E090E002
:1008100005C0C80103C09092E800EACFDF91CF91F4
:100820001F910F91FF90EF90DF90CF90BF90AF900E
:100830009F908F9008950E94F5091F920F920FB616
:100840000F9211248F939F938091E1009091E1008A
:10085000937F9093E10083FF0FC01092E90091E035
:100860009093EB001092EC0092E39093ED001092C5
:100870006E0198E09093F00082FF20C093E0909387
:10088000E9009091F200992319F09AE39093E8001F
:1008900090916001992339F090916001915090936B
:1008A0006001992389F190916D01992339F090911C
:1008B0006D01915090936D01992341F184FF10C017
:1008C0008091E2008E7E81608093E2008091E10061
:1008D0008F7E8093E10080915F018E7E806111C0E8
:1008E00080FF16C08091E2008E7E80618093E200DE
:1008F0008091E1008E7E8093E10080915F018E7E89
:10090000816080935F0104C05D98CDCF2898D6CFD9
:100910009F918F910F900FBE0F901F9018951F926F
:100920000F920FB60F921124CF92DF92EF92FF92A7
:100930000F931F932F933F934F935F936F937F93E7
:100940008F939F93AF93BF93EF93FF93CF93DF93D7
:10095000CDB7DEB76C97DEBFCDBF1092E9008091B6
:10096000E80083FFFAC168E0CE0145960E941802B4
:1009700082EF8093E8008D8987FF05C09091E800A1
:1009800090FFFCCF03C09EEF9093E800982F9076E5
:1009900009F0C6C09E892F89188D91110CC080382E
:1009A00029F480915E018093F10002C01092F10061
:1009B0001092F10047C1422F50E0512B913051F479
:1009C000811140C14130510509F03CC180915E0167
:1009D0008D7F0BC0933061F4811134C141305105DA
:1009E00009F030C180915E01826080935E012AC16E
:1009F000953041F48091E80080FFFCCF206820937F
:100A0000E30020C1963009F05FC0EB8CFC8C1092A3
:100A1000E90010925C0110925B01123091F5109286
:100A20005A01109259010E94E60199E0BE016F5FE0
:100A30007F4FDB01E92F1D92EA95E9F799831A832D
:100A400091E09E8390EA98879AEF998720915B01C5
:100A500030915C01275F3F4F3C832B838D83109245
:100A6000E90010925C0110925B01F0925A01E09251
:100A7000590149E050E080E00E94BF010E94E60178
:100A8000E1C0F0925A01E09259010E944001DC015C
:100A90001296ED90FC901397E114F10409F4C0C094
:100AA000D701ED91FC910480F581E02DBE016B5ED4
:100AB0007F4FC7010995009719F00CF0C3C0C6C05D
:100AC000F701E084F184E8CF973009F4BFC0983093
:100AD00021F481E08093F100B5C0993009F0B2C0F3
:100AE000837009F0B3C0EDE0F1E081E021E036E38E
:100AF0009081992361F08093E9002093EB0091911C
:100B00009093EC003093ED008F5F873089F78EE78C
:100B10008093EA001092EA008F8980936E0192C060
:100B20008B8D9C8D1092E90010925C0110925B01FC
:100B300090935A0180935901898D811156C08E89F5
:100B40009D89913A59F4813209F080C047E050E024
:100B500064E071E080E00E94BF0174C0913209F04E
:100B600075C0833289F4888D90E0982F88272F896B
:100B7000822BA0E0B0E08093000190930101A0934C
:100B80000201B09303015EC0803269F48091E800F5
:100B900082FFFCCF67E084E091E00E9418028BEFB7
:100BA0008093E80006C0823209F04CC08F898093A0
:100BB0000B0180915D01882319F0EEEFFAE002C08D
:100BC000E0E0F8E08091040190910501A091060118
:100BD000B0910701803B9440A105B10509F088C0A0
:100BE00080910B0180FFA0C083C00E944001DC0106
:100BF00012960D911C9113970115110539F1D80129
:100C0000ED91FC910190F081E02DBE016B5E7F4F74
:100C1000C8010995811116C0F80100851185ECCF36
:100C20001130C1F0133091F48F89882309F455C035
:100C30008230E9F440E86DE083EA91E00E948201AD
:100C4000882321F08EEF8093E80087C081E28093B3
:100C5000EB0083C08B8D9C8D089711F41093580185
:100C600080915801811136C061EB71E038C081304C
:100C700029F440E86BE087E991E0E0CF833031F779
:100C80000E944001DC011296ED90FC9013978E01BA
:100C90000F5F1F4F6801E114F10479F0D701ED9166
:100CA000FC910680F781E02DB801C7010995080F76
:100CB000111DF701E084F184EECFD8011C92F601FA
:100CC00001900020E9F73197BF016C197D0940E0E0
:100CD000C601B4CF63EC71E002C063E971E0611555
:100CE000710509F4B3CFFB01449150E080E833CFA4
:100CF0000FB6F894A8958091600088618093600099
:100D0000109260000FBEA895EE3F2AE0F20739F07E
:100D10008091FE0A9091FF0A9183808393CF109275
:100D2000FF0A1092FE0A8ECFEE3F8AE0F80731F0FC
:100D3000808191819093FF0A8093FE0A87E797E76D
:100D4000918380839BE088E10FB6F894A895809307
:100D500060000FBE9093600075CF6C960FB6F8944C
:100D6000DEBF0FBECDBFDF91CF91FF91EF91BF915D
:100D7000AF919F918F917F916F915F914F913F9133
:100D80002F911F910F91FF90EF90DF90CF900F90D8
:100D90000FBE0F901F9018951F920F920FB60F92D3
:100DA00011242F933F938F939F93AF93BF93809181
:100DB000250190912601A0912701B0912801309141
:100DC000240123E0230F2D3720F40196A11DB11D2E
:100DD00005C026E8230F0296A11DB11D2093240112
:100DE0008093250190932601A0932701B0932801B9
:100DF0008091290190912A01A0912B01B0912C01A1
:100E00000196A11DB11D8093290190932A01A09301
:100E10002B01B0932C01BF91AF919F918F913F9186
:100E20002F910F900FBE0F901F901895CF92DF92C9
:100E3000EF92FF920F931F93E82FF92F05C00150F7
:100E400011092109310961F1908196239417B9F3B1
:100E500005C0015011092109310911F19081962332
:100E60009413F7CFC12CD12CE12CF12C0AC08FEFB9
:100E7000C81AD80AE80AF80A0C151D052E053F0500
:100E800079F080818623841791F36C2D7D2D8E2D32
:100E90009F2D1F910F91FF90EF90DF90CF900895BD
:100EA00060E070E080E090E01F910F91FF90EF9084
:100EB000DF90CF900895EFE6F1E01382128288EE82
:100EC00093E0A0E0B0E084839583A683B78387E1B5
:100ED00091E0918380838FEF9FEF95878487EFEB7D
:100EE000F1E081E090E0918380831382128282E0BE
:100EF00090E09583848383E090E09783868384E009
:100F000090E09187808785E090E09387828786E0F4
:100F100090E09587848787E090E09787868788E0D0
:100F200090E0918B808B89E090E0938B828B8AE0BC
:100F300090E0958B848B8BE090E0978B868B8CE098
:100F400090E0918F808F8DE090E0938F828F82E18F
:100F500090E0958F848F83E190E0978F868F84E176
:100F600090E091A380A385E190E093A382A386E122
:100F700090E095A384A387E190E097A386A30895CA
:100F8000CF93DF9300D000D000D0CDB7DEB77894F8
:100F900084B5826084BD84B5816084BD85B582607E
:100FA00085BD85B5816085BD80916E00816080932F
:100FB0006E00109281008091810082608093810098
:100FC00080918100816080938100809180008160A8
:100FD0008093800080919100826080939100809145
:100FE0009100816080939100809190008160809356
:100FF00090008091C10084608093C1008091C10005
:1010000082608093C1008091C10081608093C100A3
:101010008091C30081608093C3008091C000826092
:101020008093C0008091C20081608093C200809153
:101030007A00846080937A0080917A008260809345
:101040007A0080917A00816080937A0080917A00A2
:10105000806880937A0010926E0110925E01109267
:101060005F018091D70081608093D70080EA8093F0
:10107000D80089B5806189BD89B5826089BD09B410
:1010800000FEFDCF61E070E080E090E00E9455033B
:101090008091D8008F7C80618093D8008091E0009F
:1010A000807F8093E0008091E1008E7E8093E1005C
:1010B0008DE08093E200559A209A5D982898EEEF93
:1010C000FFE7859194918B3F9C4D19F481E08093CB
:1010D0005D018FEF9FEF90937C0180937B011091D6
:1010E0000B016AE070E080E090E00E94550311235C
:1010F000B1F3AFEBB1E08D919C9111979927FC0171
:10110000EE5CFE4F2491FC01ED5EFE4F849188233E
:10111000A1F090E0880F991FFC01E950FF4F459125
:101120005491FC01E751FF4F859194918FB7F8944A
:10113000FA019081922B90838FBF12968D919C9192
:1011400013979927FC01EE5CFE4F2491FC01ED5EA4
:10115000FE4F84918823D1F090E0880F991FFC0105
:10116000E950FF4F45915491FC01E751FF4F6591C4
:1011700074919FB7F894FA013081822F8095832370
:101180008083FB018081282B20839FBF1496F1E090
:10119000A73EBF0709F0AFCF63E2262E312C7DE1D9
:1011A000472E512C612C712CE0E08E2EE0E09E2E1B
:1011B0008FE691E00E94B302892BD1F38FE691E094
:1011C0000E94710280935701833609F08FC05DE25F
:1011D000A52E51E0B52E8FEB91E09E838D830E946A
:1011E00030036B017C0160E0ED81FE8180810E9413
:1011F000CD0287E090E00197F1F7F894ED81FE8150
:10120000108161E0812F0E94CD02C1010197F1F7A9
:1012100060E0812F0E94CD02ED81FE818281938169
:101220009927FC01EE5CFE4F6491FC01ED5EFE4FE0
:10123000E491F0E0EE0FFF1FEB5FFE4F859194917C
:1012400008E31AE420E030E0462F0E9416076115FB
:1012500071058105910539F0DC01CB010196A11DD5
:10126000B11DBF7003C080E090E0DC017894BC0148
:10127000CD019595879577956795A30192010E9479
:10128000AE0929833A834B835C830E943003298112
:101290003A814B815C81C616D706E806F90680F0D4
:1012A000F50121933193419351935F018D819E818B
:1012B00004969E838D83875E914009F090CF3EC057
:1012C000FCE2CF0EFCE4DF1EE11CF11C29833A8313
:1012D0004B835C830E94300329813A814B815C817E
:1012E000C616D706E806F90688F7DACF8136F9F48C
:1012F0000DE211E07801F80160818FE691E00E9433
:1013000050020C5F1F4FF70180819181A281B38150
:10131000692F7A2F8B2F992787FD9A958FE691E079
:101320000E945002F1E005351F0721F707C08936FA
:1013300029F465E58FE691E00E9450028091550105
:101340009091560101969093560180935501811416
:10135000910409F42DCF0E9400002ACF052E97FB9F
:101360001EF400940E94C50957FD07D00E94D309BE
:1013700007FC03D04EF40C94C50950954095309568
:1013800021953F4F4F4F5F4F0895909580957095F1
:1013900061957F4F8F4F9F4F0895EE0FFF1F059070
:1013A000F491E02D0994A1E21A2EAA1BBB1BFD01AA
:1013B0000DC0AA1FBB1FEE1FFF1FA217B307E40734
:1013C000F50720F0A21BB30BE40BF50B661F771F8C
:1013D000881F991F1A9469F760957095809590956C
:1013E0009B01AC01BD01CF01089581E090E0F8942C
:0813F0000C94FA09F894FFCFF8
:1013F800FFFFFFFF00E100000000000000C1808146
:101408000000000000000050028F03B30271028F39
:041418000266020066
:00000001FF
