:100000000C94EC000C9414010C9414010C94140145
:100010000C9414010C9414010C9414010C9414010C
:100020000C9414010C9414010C9484040C94F604A4
:100030000C9414010C9414010C9414010C941401EC
:100040000C9414010C9414010C9414010C941401DC
:100050000C9414010C9414010C9414010C943307A7
:100060000C9414010C9414010C9414010C941401BC
:100070000C9414010C9414010C9414010C941401AC
:100080000C9414010C9414010C9414010C9414019C
:100090000C9414010C9414010C9414010C9414018C
:1000A0000C9414010C9414010C941401F802FB023A
:1000B000EA02EE02F2021C031C031C03FF0203030C
:1000C00007030D0311031C031703000000020009BE
:1000D0000F0000030401000C0000000000000000FD
:1000E00000000000000000000000000000250028C3
:1000F000002B002E00310000000000240027002A01
:10010000002D003000000000002300260029002CF4
:10011000002F000404040404030405020202020484
:100120000302020202060606060606040402020292
:1001300004040408020110408040102040804080E8
:10014000080204018040201002011080102040406D
:1001500020080B0002020201000904000001020253
:1001600000000524001001052401010104240206F9
:100170000524060001070581031000400904010061
:10018000020A000000070502024000000705830282
:100190004000000403090441726475696E6F204CCD
:1001A0004C430041726475696E6F204D6963726FD4
:1001B00000120100020000004041233780000101CD
:1001C00002030112010002EF0201404123378000C7
:1001D000010102030100C20711241FBECFEFDAE0C4
:1001E000DEBFCDBF11E0A0E0B1E0E4EBFAE102C078
:1001F00005900D92A434B107D9F722E0A4E4B1E050
:1002000001C01D92A830B207E1F710E0CCEED0E0BB
:1002100004C02197FE010E94870ACB3ED107C9F78F
:100220000E9427080C94580D0C940000FC0180914A
:100230008B01811103C08FEF9FEF08959FB7F89452
:1002400082E08093E9002091F20030E0121613065C
:1002500014F421E030E02115310559F0289A84E6A4
:1002600080938A018091F10080838091F20088233D
:1002700019F09FBFC90108958BE68093E800F9CF7C
:100280008091820181110DC082E080937E0184E023
:1002900080937F01109281011092800181E0809310
:1002A00082018EE791E008954091780150917901A3
:1002B000209176013091770142175307B4F4909161
:1002C000E8009570E1F39091E80092FD19C08093E9
:1002D000F100809178019091790101968F739927AF
:1002E000892B19F48EEF8093E8008091780190912A
:1002F00079010196909379018093780181E00895C6
:1003000080E00895CF92DF92EF92FF920F931F93B8
:10031000CF93DF931F92CDB7DEB7182F062FE42EB1
:10032000862F880F8E5F99830E94540183E00E947C
:100330005401F12EC12E9981D92E8C2D8F19801741
:1003400098F4F601E7FE02C0849101C080810E940A
:100350005401182F80E00E9454018123FFEFCF1A2F
:10036000DF0A8111EACF01C081E00F90DF91CF91C8
:100370001F910F91FF90EF90DF90CF900895DF9243
:10038000EF92FF920F931F93CF93DF93D82E8A01A2
:100390007B01E40EF51EEB01CE15DF0571F0D7FEF3
:1003A00003C0FE01849101C088810E9454012196FE
:1003B0008111F2CF8FEF9FEF01C0C801DF91CF9184
:1003C0001F910F91FF90EF90DF9008950F931F936F
:1003D000CF93DF931F92CDB7DEB782E0898342E4EB
:1003E00050E061E571E080E80E94BF010E94400199
:1003F000DC0112960D911C9113970115110569F0FE
:10040000D801ED91FC910280F381E02DBE016F5F78
:100410007F4FC801099597FF07C089810F90DF9131
:10042000CF911F910F910895F80100851185E5CFB7
:10043000615030F02091F100FC0120830196F8CF4B
:10044000289A84E680938A010895CF92DF92EF92F2
:10045000FF920F931F93CF93DF936C017A018B016F
:10046000C0E0D0E0CE15DF0589F0D8016D918D0197
:10047000D601ED91FC910190F081E02DC601099526
:10048000892B11F47E0102C02196ECCFC701DF91C8
:10049000CF911F910F91FF90EF90DF90CF90089533
:1004A000CF93DF931F92CDB7DEB76983DC01ED9167
:1004B000FC910280F381E02D41E050E0BE016F5FCE
:1004C0007F4F09950F90DF91CF91089583E080933E
:1004D000E9008091F200882319F08AE38093E80014
:1004E0000895CF93DF931F92CDB7DEB7FC018485CB
:1004F000958597FD05C02FEF3FEF358724870BC00B
:10050000CE0101960E941601019719F4898190E0AD
:1005100002C08FEF9FEF0F90DF91CF9108950F935F
:100520001F93CF93DF931F92CDB7DEB78C01FC01F1
:100530008485958597FF0EC0CE0101960E94160115
:10054000019719F4298130E002C02FEF3FEFF80145
:1005500035872487F801848595850F90DF91CF91A9
:100560001F910F910895FC018485958597FD0BC01F
:100570009FB7F89482E08093E9008091F2009FBFDA
:1005800090E0019608959FB7F89482E08093E90087
:100590008091F2009FBF90E00895362F90E0FC011B
:1005A000E653FF4F4491FC01EE5CFE4F2491FC01A9
:1005B000ED5EFE4F8491882309F451C04423E1F19C
:1005C00050E0FA013197EF30F105B0F5EA5AFF4FEC
:1005D0000C94870A909180009F7707C090918000CB
:1005E0009F7D03C090918000977F9093800024C0EE
:1005F00094B59F7702C094B59F7D94BD1DC0909126
:1006000090009F7707C0909190009F7D03C09091CC
:100610009000977F909390000FC09091C0009F77BB
:1006200003C09091C0009F7D9093C00005C0909141
:10063000C200977F9093C200E82FF0E0EE0FFF1FFB
:10064000E751FF4FA591B4918FB7F894EC91311118
:1006500003C020952E2301C02E2B2C938FBF08950D
:100660003FB7F8948091490190914A01A0914B01C4
:10067000B0914C0126B5A89B05C02F3F19F00196FB
:10068000A11DB11D3FBFBA2FA92F982F8827820F18
:10069000911DA11DB11DBC01CD0142E0660F771F68
:1006A000881F991F4A95D1F708958F929F92AF9214
:1006B000BF92CF92DF92EF92FF926B017C010E947A
:1006C00030034B015C01C114D104E104F104F1F0E9
:1006D0000E943003DC01CB0188199909AA09BB09E2
:1006E000883E9340A105B10570F321E0C21AD108FC
:1006F000E108F10888EE880E83E0981EA11CB11C69
:10070000C114D104E104F10419F7DDCFFF90EF909B
:10071000DF90CF90BF90AF909F908F9008958F9271
:100720009F92AF92BF92CF92DF92EF92FF920F9380
:100730001F93CF93DF935C016B018A0180910B01C2
:10074000882309F45EC080918B01882309F459C085
:1007500080917C0180FF05C08091E00082608093E1
:10076000E000E8018AEFF82E93E0E92E2FE3822ED5
:100770003AE3932E209709F43DC08FB7F894E092A6
:10078000E9009091E80095FF06C09091F200282DB5
:10079000291B922F01C090E08FBF91110AC0FA94DB
:1007A000FF2079F161E070E080E090E00E94550365
:1007B000E1CF292F30E0C217D3070CF49C2F8FB75D
:1007C000F894E092E9002091E80025FF11C0292F5C
:1007D00030E0C21BD30BF601915020F041914093C1
:1007E000F100FACFC20ED31E9091E80095FF13C01E
:1007F0008FBFC0CF5D9A84E680937D0110161106ED
:1008000044F081E090E0F5019383828380E090E002
:1008100005C0C80103C09092E800EACFDF91CF91F4
:100820001F910F91FF90EF90DF90CF90BF90AF900E
:100830009F908F9008950E94A60C0F931F93CF93C3
:10084000DF93EC0188819981009729F02A813B810F
:100850002617370788F48B016F5F7F4F0E94DC0BF0
:10086000009761F0998388831B830A832C813D81E3
:10087000232B11F4FC01108281E001C080E0DF91A4
:10088000CF911F910F910895EF92FF920F931F93B5
:10089000CF93DF93FC01248135816115710511F43B
:1008A00080E019C041155105A9F07B01EC018A01D6
:1008B000020F131FB8010E941D04882389F32881A9
:1008C00039818C819D81B701820F931F0E94B40CE6
:1008D0001D830C8381E0DF91CF911F910F91FF90D9
:1008E000EF900895CF93DF93EC0188819981009771
:1008F00011F00E94440B198218821D821C821B82F7
:100900001A82DF91CF9108951F920F920FB60F9226
:1009100011248F939F938091E1009091E100937F48
:100920009093E10083FF0FC01092E90091E0909353
:10093000EB001092EC0092E39093ED0010928B018B
:1009400098E09093F00082FF20C093E09093E9003C
:100950009091F200992319F09AE39093E800909116
:100960007D01992339F090917D01915090937D0103
:10097000992389F190918A01992339F090918A0104
:10098000915090938A01992341F184FF10C0809186
:10099000E2008E7E81608093E2008091E1008F7E94
:1009A0008093E10080917C018E7E806111C080FF88
:1009B00016C08091E2008E7E80618093E20080917B
:1009C000E1008E7E8093E10080917C018E7E8160CB
:1009D00080937C0104C05D98CDCF2898D6CF9F919D
:1009E0008F910F900FBE0F901F9018951F920F922E
:1009F0000FB60F921124CF92DF92EF92FF920F93D6
:100A00001F932F933F934F935F936F937F938F9396
:100A10009F93AF93BF93EF93FF93CF93DF93CDB7A4
:100A2000DEB76C97DEBFCDBF1092E9008091E80081
:100A300083FFFAC168E0CE0145960E94180282EF5A
:100A40008093E8008D8987FF05C09091E80090FFB2
:100A5000FCCF03C09EEF9093E800982F907609F0AA
:100A6000C6C09E892F89188D91110CC0803829F439
:100A700080917B018093F10002C01092F1001092EE
:100A8000F10047C1422F50E0512B913051F48111B8
:100A900040C14130510509F03CC180917B018D7FFF
:100AA0000BC0933061F4811134C14130510509F01C
:100AB00030C180917B01826080937B012AC1953097
:100AC00041F48091E80080FFFCCF20682093E30090
:100AD00020C1963009F05FC0EB8CFC8C1092E900CD
:100AE0001092790110927801123091F510927701ED
:100AF000109276010E94E60199E0BE016F5F7F4F80
:100B0000DB01E92F1D92EA95E9F799831A8391E0B9
:100B10009E8390EA98879AEF998720917801309187
:100B20007901275F3F4F3C832B838D831092E9002F
:100B30001092790110927801F0927701E09276019B
:100B400049E050E080E00E94BF010E94E601E1C060
:100B5000F0927701E09276010E944001DC0112964A
:100B6000ED90FC901397E114F10409F4C0C0D70193
:100B7000ED91FC910480F581E02DBE016B5E7F4F0D
:100B8000C7010995009719F00CF0C3C0C6C0F70162
:100B9000E084F184E8CF973009F4BFC0983021F4A5
:100BA00081E08093F100B5C0993009F0B2C0837044
:100BB00009F0B3C0E3E1F1E081E021E036E39081A8
:100BC000992361F08093E9002093EB009191909339
:100BD000EC003093ED008F5F873089F78EE78093CC
:100BE000EA001092EA008F8980938B0192C08B8D6E
:100BF0009C8D1092E90010927901109278019093E7
:100C0000770180937601898D811156C08E899D89E7
:100C1000913A59F4813209F080C047E050E064E035
:100C200071E080E00E94BF0174C0913209F075C08C
:100C3000833289F4888D90E0982F88272F89822B22
:100C4000A0E0B0E08093000190930101A093020125
:100C5000B09303015EC0803269F48091E80082FFA6
:100C6000FCCF67E084E091E00E9418028BEF809354
:100C7000E80006C0823209F04CC08F8980930B01D6
:100C800080917A01882319F0EEEFFAE002C0E0E0EB
:100C9000F8E08091040190910501A0910601B091C6
:100CA0000701803B9440A105B10509F088C08091FF
:100CB0000B0180FFA0C083C00E944001DC0112969E
:100CC0000D911C9113970115110539F1D801ED9182
:100CD000FC910190F081E02DBE016B5E7F4FC80159
:100CE0000995811116C0F80100851185ECCF1130EE
:100CF000C1F0133091F48F89882309F455C08230F4
:100D0000E9F440E86DE083EA91E00E9482018823E3
:100D100021F08EEF8093E80087C081E28093EB00A2
:100D200083C08B8D9C8D089711F410937501809171
:100D30007501811136C061EB71E038C0813029F452
:100D400040E86BE087E991E0E0CF833031F70E9423
:100D50004001DC011296ED90FC9013978E010F5F1D
:100D60001F4F6801E114F10479F0D701ED91FC9176
:100D70000680F781E02DB801C7010995080F111D04
:100D8000F701E084F184EECFD8011C92F6010190C6
:100D90000020E9F73197BF016C197D0940E0C601D9
:100DA000B4CF63EC71E002C063E971E061157105D5
:100DB00009F4B3CFFB01449150E080E833CF0FB684
:100DC000F894A895809160008861809360001092EB
:100DD00060000FBEA895EE3F2AE0F20739F080913F
:100DE000FE0A9091FF0A9183808393CF1092FF0AAD
:100DF0001092FE0A8ECFEE3F8AE0F80731F0808134
:100E000091819093FF0A8093FE0A87E797E7918389
:100E100080839BE088E10FB6F894A89580936000EA
:100E20000FBE9093600075CF6C960FB6F894DEBF3E
:100E30000FBECDBFDF91CF91FF91EF91BF91AF91E9
:100E40009F918F917F916F915F914F913F912F91E2
:100E50001F910F91FF90EF90DF90CF900F900FBEFA
:100E60000F901F9018951F920F920FB60F9211249A
:100E70002F933F938F939F93AF93BF93809145019F
:100E800090914601A0914701B091480130914401F1
:100E900023E0230F2D3720F40196A11DB11D05C0BD
:100EA00026E8230F0296A11DB11D209344018093D3
:100EB000450190934601A0934701B093480180916A
:100EC000490190914A01A0914B01B0914C010196CA
:100ED000A11DB11D8093490190934A01A0934B013C
:100EE000B0934C01BF91AF919F918F913F912F9102
:100EF0000F900FBE0F901F901895CF92DF92EF9238
:100F0000FF920F931F93E82FF92F05C0015011098D
:100F10002109310961F1908196239417B9F305C035
:100F2000015011092109310911F19081962394137F
:100F3000F7CFC12CD12CE12CF12C0AC08FEFC81AAD
:100F4000D80AE80AF80A0C151D052E053F0579F0A8
:100F500080818623841791F36C2D7D2D8E2D9F2DFE
:100F60001F910F91FF90EF90DF90CF90089560E078
:100F700070E080E090E01F910F91FF90EF90DF9084
:100F8000CF900895ECE8F1E01382128288EE93E0AE
:100F9000A0E0B0E084839583A683B7838DE191E0E0
:100FA000918380838FEF9FEF95878487ECEDF1E04D
:100FB00081E090E0918380831382128282E090E04E
:100FC0009583848383E090E09783868384E090E038
:100FD0009187808785E090E09387828786E090E024
:100FE0009587848787E090E09787868788E090E000
:100FF000918B808B89E090E0938B828B8AE090E0EC
:10100000958B848B8BE090E0978B868B8CE090E0C7
:10101000918F808F8DE090E0938F828F82E190E0BE
:10102000958F848F83E190E0978F868F84E190E0A5
:1010300091A380A385E190E093A382A386E190E051
:1010400095A384A387E190E097A386A30895CF9307
:10105000DF93CDB7DEB7A0970FB6F894DEBF0FBE13
:10106000CDBF789484B5826084BD84B5816084BD31
:1010700085B5826085BD85B5816085BD80916E0036
:10108000816080936E001092810080918100826067
:1010900080938100809181008160809381008091A4
:1010A00080008160809380008091910082608093B5
:1010B00091008091910081608093910080919000D7
:1010C0008160809390008091C10084608093C10012
:1010D0008091C10082608093C1008091C1008160D5
:1010E0008093C1008091C30081608093C300809190
:1010F000C00082608093C0008091C20081608093B4
:10110000C20080917A00846080937A0080917A0096
:10111000826080937A0080917A00816080937A0067
:1011200080917A00806880937A0010928B011092EF
:101130007B0110927C018091D70081608093D70061
:1011400080EA8093D80089B5806189BD89B58260C5
:1011500089BD09B400FEFDCF61E070E080E090E061
:101160000E9455038091D8008F7C80618093D800C5
:101170008091E000807F8093E0008091E1008E7E8E
:101180008093E1008DE08093E200559A209A5D986B
:101190002898EEEFFFE7859194918B3F9C4D19F4D1
:1011A00081E080937A018FEF9FEF90939901809374
:1011B000980110910B016AE070E080E090E00E94DD
:1011C00055031123B1F3ACEDB1E08D919C911197D2
:1011D0009927FC01EE5CFE4F2491FC01ED5EFE4F71
:1011E00084918823A1F090E0880F991FFC01E950B9
:1011F000FF4F45915491FC01E751FF4F8591949128
:101200008FB7F894FA019081922B90838FBF12963A
:101210008D919C9113979927FC01EE5CFE4F2491D0
:10122000FC01ED5EFE4F84918823D1F090E0880FA1
:10123000991FFC01E950FF4F65917491FC01E75142
:10124000FF4F459154919FB7F894FB013081822F55
:10125000809583238083FA018081282B20839FBF80
:101260001496F2E0A430BF0709F0AFCF7DE1472E1E
:10127000512C612C712CCE0101967C0157E0252E5A
:10128000312C63E2862E912CADE4B1E0BC8FAB8FA4
:101290005D014CEDC42E41E0D42E60E0F60180816A
:1012A0000E94CD02C1010197F1F7F894D6011C917B
:1012B00061E0812F0E94CD02C4010197F1F760E047
:1012C000812F0E94CD02F601828193819927FC0132
:1012D000EE5CFE4F6491FC01ED5EFE4FE491F0E0A8
:1012E000EE0FFF1FEB5FFE4F8591949100E412E437
:1012F0002FE030E0462F0E947D07611571058105C2
:10130000910539F0DC01CB010196A11DB11DBF7023
:1013100003C080E090E0DC017894BC01CD0195959C
:10132000879577956795A30192010E94680AD50178
:101330002D933D934D935D935D01B4E0CB0ED11C95
:10134000E4E0CE16E2E0DE0609F0A7CFC12CD12CF6
:10135000EB8DFC8D81919191A191B191FC8FEB8FDF
:101360008D8F9E8FAF8FB8A31E8A1D8A188E1F8AFD
:101370001A8E198E62E170E0CE0145960E941D041E
:10138000811105C0CE0145960E9472040AC082E117
:1013900090E09A8F898F69E271E08D899E890E9421
:1013A000B40C188A1F861A8A198A1C8A1B8A0D890E
:1013B0001E8901151105A9F0A98CBA8CB501CE01C1
:1013C0000F960E941D04811105C0CE010F960E9448
:1013D000720407C0BC8AAB8AB8018F8598890E94C5
:1013E000B40C4AE0B701C6010E94BB0CF7010190A2
:1013F0000020E9F73197AF014E195F09B701CE011F
:101400000F960E944404811104C0CE010F960E94E1
:10141000720443E050E06CE371E0CE010F960E944D
:101420004404882309F44FC02AE0A7016D8D7E8D06
:101430008F8D98A10E94C60CF70101900020E9F75A
:101440003197AF014E195F09B701CE010F960E9487
:101450004404811104C0CE010F960E947204E091F1
:101460008C01F0918D014B895C896F8578890280B0
:10147000F381E02D8CE891E00995E0918C01F091E9
:101480008D010280F381E02D42E050E060E471E0E4
:101490008CE891E009958F8598890E94440B8D898D
:1014A0009E890E94440BFFEFCF1ADF0A2AE0C21682
:1014B000D10409F04DCF80E090E0892B09F4E4CE0F
:1014C0000E940000DBCECE010F960E947204ACCFCA
:1014D000052E97FB1EF400940E947F0A57FD07D04B
:1014E0000E948D0A07FC03D04EF40C947F0A50959D
:1014F0004095309521953F4F4F4F5F4F0895909500
:101500008095709561957F4F8F4F9F4F0895EE0F97
:10151000FF1F0590F491E02D0994A1E21A2EAA1B59
:10152000BB1BFD010DC0AA1FBB1FEE1FFF1FA21793
:10153000B307E407F50720F0A21BB30BE40BF50B90
:10154000661F771F881F991F1A9469F76095709519
:10155000809590959B01AC01BD01CF010895CF937B
:10156000DF938230910510F482E090E0E091060272
:10157000F091070220E030E0C0E0D0E0309711F1B8
:101580004081518148175907C0F04817590761F445
:1015900082819381209719F09B838A832BC090933B
:1015A00007028093060226C02115310519F0421763
:1015B000530718F49A01BE01DF01EF010280F381A5
:1015C000E02DDCCF2115310509F1281B390B243022
:1015D000310590F412968D919C91139761157105C8
:1015E00021F0FB019383828304C0909307028093D0
:1015F0000602FD01329644C0FD01E20FF31F819304
:101600009193225031092D933C933AC020910402CA
:1016100030910502232B41F420910E0130910F01EE
:10162000309305022093040220910C0130910D01AA
:101630002115310541F42DB73EB74091100150916D
:101640001101241B350BE0910402F0910502E21711
:10165000F307A0F42E1B3F0B2817390778F0AC01D5
:101660004E5F5F4F2417350748F04E0F5F1F5093B2
:101670000502409304028193919302C0E0E0F0E000
:10168000CF01DF91CF9108950F931F93CF93DF93F5
:10169000009709F48CC0FC013297138212820091EA
:1016A0000602109107020115110581F42081318194
:1016B000820F931F209104023091050228173907E9
:1016C00079F5F0930502E093040271C0D80140E07F
:1016D00050E0AE17BF0750F412962D913C9113972E
:1016E000AD012115310509F1D901F3CF9D01DA01D1
:1016F0003383228360817181860F971F821793073E
:1017000069F4EC0128813981260F371F2E5F3F4F86
:10171000318320838A819B8193838283452B29F4A3
:10172000F0930702E093060242C01396FC93EE93F7
:101730001297ED01499159919E01240F351FE2172F
:10174000F30771F480819181840F951F02961196A1
:101750009C938E938281938113969C938E93129780
:10176000E0E0F0E0D80112968D919C9113970097DC
:1017700019F0F8018C01F6CF8D919C9198012E5FA4
:101780003F4F820F931F20910402309105022817CA
:10179000390769F4309729F4109207021092060273
:1017A00002C0138212821093050200930402DF919B
:1017B000CF911F910F910895A0E0B0E0E2EEFBE021
:1017C0000C94250DEC01009721F4CB010E94AF0A87
:1017D000B8C0FC01E60FF71F9C0122503109E21747
:1017E000F30708F4ACC0D9010D911C9111970617AD
:1017F0001707B0F00530110508F49FC0C801049721
:101800008617970708F499C002501109061B170B99
:10181000019311936D937C93CF010E94440B8DC073
:101820005B01A01AB10A4C01800E911EA091060224
:10183000B091070240E050E0E12CF12C109709F440
:101840004AC0A815B905D1F56D907C901197630138
:1018500082E0C80ED11CCA14DB0480F1A3014A192E
:101860005B096A0182E0C80ED11C1296BC901297E7
:101870001396AC91B5E0CB16D10440F0B282A383AD
:1018800051834083D9016D937C930AC00E5F1F4F33
:10189000C301800F911FF90191838083EB2DFA2FF3
:1018A000E114F10431F0D7011396FC93EE931297F3
:1018B00044C0F0930702E09306023FC08D919C91D3
:1018C00011974817590708F4AC017D0112960D9045
:1018D000BC91A02DB3CF8091040290910502881590
:1018E0009905E1F446175707C8F480910C019091CF
:1018F0000D01009741F48DB79EB7409110015091B2
:101900001101841B950BE817F907C8F4F093050241
:10191000E0930402F901718360830FC0CB010E9440
:10192000AF0A7C01009759F0A801BE010E94AB0CE0
:10193000CE010E94440BC70104C0CE0102C080E06A
:1019400090E0CDB7DEB7EEE00C94410D81E090E081
:10195000F8940C94580DFB01DC0102C001900D922B
:1019600041505040D8F70895FB01DC0101900D92E1
:101970000020E1F70895BB274A3031F4992322F47F
:10198000BDE2909581959F4F0C94F80CBB272A30AF
:1019900051F4992342F4BDE290958095709561953C
:1019A0007F4F8F4F9F4F0C94D60CBB27FA01A62F69
:1019B0006217710581059105330B30FB66F0AA278C
:1019C000660F771F881F991FAA1FA21710F0A21B6E
:1019D00063953850A9F7A05DAA3308F0A95DA193DB
:1019E00036F7B111B1931082CA010C94110DBB27C7
:1019F000FB015527AA27880F991FAA1FA41710F0CB
:101A0000A41B83955051B9F7A05DAA3308F0A95DD6
:101A1000A193009779F7B111B1931192CB010C9476
:101A2000110DDC01FC01672F71917723E1F73297EB
:101A300004C07C916D9370836291AE17BF07C8F3A9
:101A400008952F923F924F925F926F927F928F9262
:101A50009F92AF92BF92CF92DF92EF92FF920F933D
:101A60001F93CF93DF93CDB7DEB7CA1BDB0B0FB647
:101A7000F894DEBF0FBECDBF09942A883988488804
:101A80005F846E847D848C849B84AA84B984C8849A
:101A9000DF80EE80FD800C811B81AA81B981CE0F91
:101AA000D11D0FB6F894DEBF0FBECDBFED01089576
:041AB000F894FFCFD8
:101AB400FFFFFFFF00E1000000000000000008023B
:101AC400800000C180810000000000000050028FEF
:101AD40003B30271028F026602456E746665726E0C
:101AE400756E672053656E736F722000203A200074
:041AF4000D0A0000D7
:00000001FF
